:020000040000FA
:100000000C9462000C948A000C948A000C948A0070
:100010000C948A000C948A000C948A000C948A0038
:100020000C9447040C948A000C948A000C948A0067
:100030000C948A000C948A000C948A000C948A0018
:100040000C94FD030C948A000C94CB030C94A50330
:100050000C948A000C948A000C948A000C948A00F8
:100060000C948A000C948A000000000024002700F1
:100070002A0000000000250028002B0000000008D6
:10008000000201000003040700000000000000005F
:1000900000000000230026002900040404040404D6
:1000A0000404020202020202030303030303010227
:1000B00004081020408001020408102001020408F6
:1000C0001020110511241FBECFEFD8E0DEBFCDBF39
:1000D00023E0A2E1B1E001C01D92A632B207E1F730
:1000E00011E0A0E0B1E0E2EBF5E102C005900D9275
:1000F000A231B107D9F710E0C2E6D0E004C02197E1
:10010000FE010E94D10AC136D107C9F70E945305EA
:100110000C94D70A0C9400000F931F93CF93DF9396
:10012000E091E702F091E80240913B01828510E006
:10013000481708F064C0142F117000913A010111A2
:100140004FC0842F90E0880F991FE80FF91F038498
:10015000F485E02D2CEE3FEF112311F024E130E087
:10016000C0913801D09139012C0F3D1FC90163E4C2
:1001700070E00E94BD0AE617F70760F0C90168E267
:1001800070E00E94BD0A6F5F7F4F81E090E06E17C4
:100190007F0710F52C0F3D1FC90163E470E00E943A
:1001A000BD0AE617F70750F0C90168E270E00E9447
:1001B000BD0A6F5F7F4F6E177F0760F42C0F3D1FE6
:1001C000C90163E470E00E94BD0AE617F707E8F48E
:1001D0001FEF15C082E090E09093370180933601C5
:1001E0000F5F00933A018091360190913701081713
:1001F000190628F010923A014F5F40933B01812F7E
:10020000DF91CF911F910F910895C90168E270E0CD
:100210000E94BD0A6F5F7F4F6E177F07C8F283E0B1
:1002200090E0DACFCF93DF93482FE091E702F0918F
:10023000E80271969B012C5E3F4FC90163E470E0B8
:100240000E94BD0AEB01C90168E270E00E94BD0A8C
:100250006F5F7F4F80E090E0DC0120813181349638
:10026000880F991FAA1FBB1F2C173D0720F062178C
:10027000730708F08160415081F78093CC0290931E
:10028000CD02A093CE02B093CF0281E0DF91CF9157
:100290000895AF92BF92CF92DF92EF92FF920F93A9
:1002A0001F93CF93DF936C017B018B01040F151F0C
:1002B000EB015E01AE18BF08C017D10759F0699174
:1002C000D601ED91FC910190F081E02DC6010995D8
:1002D000892B79F7C501DF91CF911F910F91FF9085
:1002E000EF90DF90CF90BF90AF900895FC01538DB9
:1002F000448D252F30E0842F90E0821B930B541700
:1003000010F0CF96089501970895FC01918D828D8C
:10031000981761F0A28DAE0FBF2FB11D5D968C9125
:10032000928D9F5F9F73928F90E008958FEF9FEF64
:100330000895FC01918D828D981731F0828DE80F20
:10034000F11D858D90E008958FEF9FEF0895FC01DA
:10035000918D228D892F90E0805C9F4F821B9109A7
:100360008F73992708958CE391E00E94A70121E003
:10037000892B09F420E0822F089580E090E0892BFA
:1003800029F00E94B30181110C9400000895FC0132
:10039000A48DA80FB92FB11DA35ABF4F2C91848DE6
:1003A00090E001968F739927848FA689B7892C9343
:1003B000A089B1898C91837080648C93938D848D96
:1003C000981306C00288F389E02D80818F7D808399
:1003D0000895EF92FF920F931F93CF93DF93EC0159
:1003E00081E0888F9B8D8C8D98131AC0E889F989DC
:1003F000808185FF15C09FB7F894EE89FF896083DF
:10040000E889F98980818370806480839FBF81E05F
:1004100090E0DF91CF911F910F91FF90EF900895A1
:10042000F62E0B8D10E00F5F1F4F0F731127E02E7C
:100430008C8D8E110CC00FB607FCFACFE889F989B4
:10044000808185FFF5CFCE010E94C701F1CFEB8DF2
:10045000EC0FFD2FF11DE35AFF4FF0829FB7F89488
:100460000B8FEA89FB8980818062CFCFCF93DF93A6
:10047000EC01888D8823B9F0AA89BB89E889F989BC
:100480008C9185FD03C0808186FD0DC00FB607FCF1
:10049000F7CF8C9185FFF2CF808185FFEDCFCE0124
:1004A0000E94C701E9CFDF91CF91089590E0FC0150
:1004B000E458FF4F2491FC01E255FF4F3491FC01B9
:1004C000E656FF4FE491EE23C9F0222339F02330A2
:1004D00001F1A8F4213019F1223029F1F0E0EE0FFA
:1004E000FF1FEE58FF4FA591B4918FB7F894EC9190
:1004F000611126C030953E233C938FBF089527306D
:10050000A9F02830C9F0243049F7809180008F7D10
:1005100003C0809180008F7780938000DFCF84B507
:100520008F7784BDDBCF84B58F7DFBCF8091B0000A
:100530008F778093B000D2CF8091B0008F7DF9CFBC
:100540003E2BDACFCF93DF9390E0FC01E255FF4FD3
:10055000249186569F4FFC0184918823D1F090E02E
:10056000880F991FFC01E859FF4FA591B491FC0138
:10057000EE58FF4FC591D49161110EC09FB7F8940A
:100580008C91E22FE0958E238C932881E223E883DF
:100590009FBFDF91CF9108958FB7F894EC91E22B34
:1005A000EC938FBFF6CFA9EDB1E011968C93119724
:1005B000282F30E0F901E255FF4FE4911496EC93B7
:1005C0001497F901E656FF4FE491F0E0EE0FFF1F9C
:1005D000E057FF4F2591349113963C932E93129739
:1005E00060E00C94A202CF93DF93EC0161E083E022
:1005F0000E94A202209731F460E083E0DF91CF9166
:100600000C945602CF3FD10511F461E0F6CFEFE72D
:10061000F0E0E491E33029F140F4E130B1F0E23070
:10062000D9F0C038D1058CF7E7CFE73021F1E830B9
:1006300051F1E430B1F780918000806280938000B6
:10064000D0938B00C0938A0004C084B5806884BDB9
:10065000C7BDDF91CF91089584B5806284BDC8BDC8
:10066000F8CF80918000806880938000D0938900CB
:10067000C0938800EECF8091B00080688093B00076
:10068000C093B300E6CF8091B00080628093B00049
:10069000C093B400DECF3FB7F894809117019091DA
:1006A0001801A0911901B0911A0126B5A89B05C0A7
:1006B0002F3F19F00196A11DB11D3FBFBA2FA92FE1
:1006C000982F8827BC01CD01620F711D811D911DDE
:1006D00042E0660F771F881F991F4A95D1F708954A
:1006E0008F929F92AF92BF92CF92DF92EF92FF9242
:1006F0000E944B034B015C0184E6C82ED12CE12CF7
:10070000F12C0E944B03681979098A099B09683EFC
:10071000734081059105A8F321E0C21AD108E108D0
:10072000F10888EE880E83E0981EA11CB11CC1144C
:10073000D104E104F10429F7FF90EF90DF90CF900E
:10074000BF90AF909F908F9008951F920F920FB619
:100750000F9211242F933F934F935F936F937F9347
:100760008F939F93AF93BF93EF93FF938CE391E0AD
:100770000E94C701FF91EF91BF91AF919F918F911F
:100780007F916F915F914F913F912F910F900FBE8D
:100790000F901F9018951F920F920FB60F92112471
:1007A0002F938F939F93EF93FF93E0914C01F091E0
:1007B0004D018081E0915201F091530182FD1BC0F7
:1007C0009081809155018F5F8F7320915601821720
:1007D00041F0E0915501F0E0E45CFE4F958F80938D
:1007E0005501FF91EF919F918F912F910F900FBE27
:1007F0000F901F9018958081F4CF1F920F920FB623
:100800000F9211242F933F938F939F93AF93BF9396
:100810008091130190911401A0911501B0911601DE
:100820003091120123E0230F2D3758F50196A11DB9
:10083000B11D209312018093130190931401A09392
:100840001501B09316018091170190911801A091A4
:100850001901B0911A010196A11DB11D80931701D4
:1008600090931801A0931901B0931A01BF91AF9111
:100870009F918F913F912F910F900FBE0F901F90DE
:10088000189526E8230F0296A11DB11DD2CF1F9205
:100890000F920FB60F9211242F933F934F935F93B4
:1008A0006F937F938F939F93AF93BF93CF93EF9368
:1008B000FF93E091DB01F091DC01C0818091DD01CB
:1008C000C8238091DE019091DF01019649F080916B
:1008D000DE019091DF0101969093DF018093DE01AC
:1008E0008091D90181111DC0C1116EC08091DE01BE
:1008F0009091DF018536910578F01092E2018091A8
:10090000DE019091DF019093E5018093E40181E0A5
:100910008093E3018093D9011092DF011092DE01F0
:1009200053C08091D9018130A9F4CC2309F44CC083
:10093000E091E3018E0F8093E3018091DE019091BD
:10094000DF01F0E0EE0FFF1FE752FE4F9487838731
:1009500082E0E0CF8091D901823009F053C0C1110B
:1009600022C0E091E30181E0E03768F08093E2018A
:1009700083E08093D901E091E001F091E1013097AB
:1009800059F20995C9CF8E0F8093E3018091DE0162
:100990009091DF01F0E0EE0FFF1FE752FE4F9487CA
:1009A000838781E0B7CF8091DE019091DF018536AA
:1009B000910550F083E08093D901E091E001F0913E
:1009C000E101309709F009958091F502813041F4F9
:1009D0008091F402C1111DC061E081111DC02D9AEA
:1009E000FF91EF91CF91BF91AF919F918F917F91A7
:1009F0006F915F914F913F912F910F900FBE0F908C
:100A00001F9018958091D9018330F1F6C111DCCF88
:100A100083CF882321F060E00E945602E1CF2D9819
:100A2000DFCFCF93DF93ECE3F1E01382128288EE05
:100A300093E0A0E0B0E084839583A683B78384E04D
:100A400091E09183808385EC90E09587848784ECA6
:100A500090E09787868780EC90E0918B808B81EC8B
:100A600090E0938B828B82EC90E0958B848B86EC6C
:100A700090E0978B868B118E128E138E148EC9ED9B
:100A8000D1E0D0931A03C093190380E00E94D302EF
:100A90001092F402D093E802C093E7028BE0DF915A
:100AA000CF910C94D302789484B5826084BD84B5D0
:100AB000816084BD85B5826085BD85B5816085BD59
:100AC00080916E00816080936E0010928100809111
:100AD0008100826080938100809181008160809399
:100AE0008100809180008160809380008091B100BE
:100AF00084608093B1008091B00081608093B000E9
:100B000080917A00846080937A0080917A0082607C
:100B100080937A0080917A00816080937A0080913E
:100B20007A00806880937A001092C100E0914C01B5
:100B3000F0914D0182E08083E0914801F0914901FC
:100B40001082E0914A01F0914B019FEC908310924A
:100B50005401E0915001F091510196E09083E091B1
:100B60004E01F0914F01908190619083E0914E0190
:100B7000F0914F01908198609083E0914E01F09147
:100B80004F01908190689083E0914E01F0914F0168
:100B900090819F7D90838093B0008093B10084E624
:100BA0008093B3008093B4001092B2008091D90179
:100BB000833011F41092D90184E08093700061E0D9
:100BC00087E00E94A20261E088E00E94A20261E048
:100BD00089E00E94A20261E08AE00E94A20261E034
:100BE00083E00E94A20261E084E00E94A2028824C5
:100BF0008394912CD3E1AD2EB12CCC24CA94DC2C5F
:100C00007601B5E02B2E312C8091D901833009F08B
:100C1000A4C180911B01811103C081E080931B015D
:100C200084EE91E090933301809332012091E301AF
:100C3000209334018091E201882321F01092E20197
:100C40001092E3018091E2018093350110922A0114
:100C500010922B0110922C0110922D0180E88093AC
:100C6000E6028091E6019091E701865891098C3562
:100C7000910588F4243071F58091E8019091E901A3
:100C80008197489740F48091EA019091EB01089791
:100C9000089708F457C0809134018A3108F487C05E
:100CA000E0913201F0913301208131812A30310508
:100CB00008F05CC010922E01C0922A01D0922B0144
:100CC000E0922C01F0922D0181E08093E60287E111
:100CD00090E047C02434F9F68091E8019091E90151
:100CE000825491098F97B8F640E956E060E372E0CC
:100CF00080E20E941201882371F2E0913201F091AA
:100D00003301EA57FF4F808191810897089718F6C1
:100D10008091CC029091CD02A091CE02B091CF02F1
:100D200080932A0190932B01A0932C01B0932D0165
:100D300080E280932E0188E090E0909327018093D9
:100D400026010FC010922E01C0922A01D0922B01D1
:100D5000E0922C01F0922D0181E88093E60288E078
:100D600090E09093C5028093C402CFC0228133816A
:100D7000245231092A313105D0F443E050E060E0DB
:100D8000412C512C320190E04817590708F055C00A
:100D900024813581285031092830310540F42681DD
:100DA00037812231310598F120323105D8F181E0C7
:100DB00080933B0189E793E0909339018093380158
:100DC00010923A010E948C00813009F0D3C0412C6E
:100DD000512C3201C0E0E091E702F091E8029285E7
:100DE00080913B01891708F03FC00E948C00D82FEA
:100DF0000E948C00D1112EC0813009F0BBC0440C80
:100E0000551C661C771C689440F8CF5FE4CF2930EE
:100E1000310568F22131310550F6440C551C661C31
:100E2000771C06C0440C551C661C771C689440F85F
:100E30006F5F4E5F5F4F3496A7CF60932E01409255
:100E40002A0150922B0160922C0170922D0187E1B2
:100E500090E073CFD13009F08DC081118BC0440C6C
:100E6000551C661C771CD1CF8C2F90E09093E50227
:100E70008093E4024092CC025092CD026092CE0266
:100E80007092CF02842D8F7390E09093C90280936B
:100E9000C802920146E0369527954A95E1F72F71F1
:100EA00033273093C7022093C60292012227307164
:100EB000232B31F4805C9F4F9093C9028093C8022A
:100EC00080E853FC88E88093E60281E190E090930B
:100ED000C5028093C402838594858F3C994028F491
:100EE0008091E60281608093E602C0932E014092D9
:100EF0002A0150922B0160922C0170922D0181E108
:100F000090E0909327018093260180912A0190918F
:100F10002B01A0912C01B0912D01863629E9920771
:100F20002FEEA20720E1B20709F499C208F065C2CA
:100F30008D3922E692072FEEA20720E1B20709F4CD
:100F4000E9C284399B46AF4EB04109F4B8C28091E2
:100F5000D901833011F41092D90180E090E0892BFF
:100F600009F452CE0E94B301882309F44ACE0E94AC
:100F7000000047CEE091E702F091E8028585968572
:100F800088974D9708F046C0878590890C970B97F6
:100F900008F040C083E080933B018CEB91E090939C
:100FA00039018093380110923A010E948C008130FF
:100FB00089F50E948C0081112DC0412C512C3201E9
:100FC000C0E0E091E702F091E802928580913B0158
:100FD000891708F06CC00E948C00182FC330B1F044
:100FE0000E948C00D82FC33021F40E948C00D813AB
:100FF00011C0113009F051C0D1110CC0440C551C66
:10100000661C771C689440F8CF5FDBCF0E948C0091
:10101000181731F3809134018C3309F0A2C0E091AC
:101020003201F091330182819381865891098D3587
:10103000910508F096C084819581CE978C9708F031
:1010400090C04CE256E064EF71E08CE10E94120126
:10105000882309F486C0E0913201F0913301EA5807
:10106000FF4F808191810797089708F07AC080919F
:10107000CC029091CD02A091CE02B091CF0280938C
:101080002A0190932B01A0932C01B0932D018CE1A8
:1010900080932E0186E090E050CE1111BBCFD1306D
:1010A00009F0B8CF440C551C661C771CADCF8C2FB3
:1010B00090E09093E5028093E4024092CC0250923B
:1010C000CD026092CE027092CF02242D30E0852DA9
:1010D000C432A0F580E88093E6023093C9022093E1
:1010E000C802852D90E09093C7028093C60260FEEF
:1010F00003C088E88093E602C53128F08091E602BB
:1011000080618093E6028385948583379A4028F432
:101110008091E60281608093E60282E190E0909304
:10112000C5028093C402C0932E0140922A015092BE
:101130002B0160922C0170922D01E3CE90E89093E8
:10114000E60257FE03C098E89093E6023093C90286
:101150002093C8028F7790E09093C7028093C602D5
:10116000D2CF40913401E0913201F091330182817C
:101170009381423289F49C0128503109273031058E
:1011800058F4DF01AE5BBF4F2D913C9128503109DF
:101190002730310508F458C08D57910987359105DE
:1011A00008F464C0E0913201F091330182819381AF
:1011B000835491098F9780F480913401843009F031
:1011C0008CC0848195818197489730F4868197817E
:1011D0000897089708F4ADC0E091E702F091E802A3
:1011E0008285823209F0B7C0E0913201F09133017B
:1011F000828193810497059708F0ADC08481958121
:101200000B970A9708F0A7C04CE157E064E071E043
:101210008FE00E941201882309F49DC08091CC02C6
:101220009091CD02A091CE02B091CF0280932A017D
:1012300090932B01A0932C01B0932D018FE080930C
:101240002E0184E090E079CD10922E01C0922A0107
:10125000D0922B01E0922C01F0922D0181E080933D
:10126000E6023092C5022092C4024FCE443208F406
:1012700099CF84819581CE978C9708F093CF4AE2DD
:1012800056E06EE072E080E10E941201882309F4CA
:1012900089CFE0913201F0913301EA5BFF4F808109
:1012A00091810897079708F07DCF8091CC029091AB
:1012B000CD02A091CE02B091CF0280932A019093EB
:1012C0002B01A0932C01B0932D0180E180932E017E
:1012D0003092270120922601C4CF843408F47CCFB9
:1012E00084819581825491098F9708F075CF40E9E8
:1012F00056E060E372E080E20E941201882309F464
:101300006BCF8091CC029091CD02A091CE02B09192
:10131000CF0280932A0190932B01A0932C01B093CC
:101320002D0180E280932E01B0922701A092260128
:101330000DC010922E01C0922A01D0922B01E09292
:101340002C01F0922D0181E08093E602B092C5025B
:10135000A092C402DACDD0913401D63008F4F7CD92
:10136000E0913201F0913301329625EC3DE94CE1F8
:1013700051E8C3E01AE08481958161917191189FD1
:101380003001199F700C1124DB0103E0AA0FBB1F71
:101390000A95E1F700E06A167B0678F0169FD00107
:1013A000179FB00D112463E0880F991F6A95E1F72C
:1013B00002E0A817B90708F001E063E971E080E0F6
:1013C00091E00E94930A9B01AC012027CF5FDC13C0
:1013D000D2CF20932A0130932B0140932C015093BC
:1013E0002D0180E280932E01109227011092260198
:1013F0001092C5021092C40288CD863429EB920760
:101400002FEEA20720E1B20709F441C08D3222ED90
:1014100092072FEEA20720E1B20709F468C08635D3
:10142000994AAF4EB04109F092CD8091240190913C
:101430002501892B59F461E087E00E9456029092C1
:101440002501809224010E94700381CD60E087E035
:101450000E9456021092250110922401F4CF80912F
:10146000220190912301892B49F461E088E00E94D8
:1014700056029092230180922201E5CF60E088E03D
:101480000E9456021092230110922201DCCF80911B
:10149000200190912101892B49F461E089E00E94AB
:1014A00056029092210180922001CDCF60E089E028
:1014B0000E9456021092210110922001C4CF809107
:1014C0001E0190911F01892B49F461E08AE00E947E
:1014D000560290921F0180921E01B5CF60E08AE013
:1014E0000E94560210921F0110921E01ACCF8091F3
:1014F0001C0190911D018F3F91052CF4499690930A
:101500001D0180931C0180911C0190911D010E947E
:10151000F30299CF80911C0190911D0118161906B4
:1015200094F74997ECCFDB018F939F930E94A30A16
:10153000BF91AF91A29F800D911DA39F900DB29F6F
:10154000900D112408950E94AE0AA59F900DB49F9E
:10155000900DA49F800D911D11240895A29FB001AC
:10156000B39FC001A39F700D811D1124911DB29FD7
:10157000700D811D1124911D0895AA1BBB1B51E103
:1015800007C0AA1FBB1FA617B70710F0A61BB70BF3
:10159000881F991F5A95A9F780959095BC01CD0198
:1015A0000895EE0FFF1F0590F491E02D0994F89433
:1015B000FFCF00000000E901490176013602A701D2
:0415C0008501990107
:107800000C94343C0C94513C0C94513C0C94513CE1
:107810000C94513C0C94513C0C94513C0C94513CB4
:107820000C94513C0C94513C0C94513C0C94513CA4
:107830000C94513C0C94513C0C94513C0C94513C94
:107840000C94513C0C94513C0C94513C0C94513C84
:107850000C94513C0C94513C0C94513C0C94513C74
:107860000C94513C0C94513C11241FBECFEFD8E036
:10787000DEBFCDBF11E0A0E0B1E0ECE9FFE702C060
:1078800005900D92A230B107D9F712E0A2E0B1E065
:1078900001C01D92AD30B107E1F70E942D3D0C945F
:1078A000CC3F0C94003C982F959595959595959582
:1078B000905D8F708A307CF0282F295A8091C0000B
:1078C00085FFFCCF9093C6008091C00085FFFCCF60
:1078D0002093C6000895282F205DF0CF982F809127
:1078E000C00085FFFCCF9093C6000895EF92FF92F1
:1078F0000F931F93EE24FF2487018091C00087FD22
:1079000017C00894E11CF11C011D111D81E4E8164B
:1079100082E4F8068FE0080780E0180770F3E09132
:107920000401F091050109958091C00087FFE9CF1E
:107930008091C6001F910F91FF90EF9008950E94D3
:10794000763C982F8091C00085FFFCCF9093C600B5
:1079500091362CF490330CF09053892F089597555D
:10796000892F08951F930E949F3C182F0E949F3CCF
:107970001295107F810F1F9108951F93182F882350
:1079800021F00E94763C1150E1F71F9108951F935A
:10799000182F0E94763C803249F0809103018F5F5E
:1079A000809303018530C1F01F9108958091C0003C
:1079B00085FFFCCF84E18093C6008091C00085FFE5
:1079C000FCCF1093C6008091C00085FFFCCF80E102
:1079D0008093C6001F910895E0910401F091050184
:1079E00009951F9108950E94763C803241F0809164
:1079F00003018F5F80930301853081F008958091AA
:107A0000C00085FFFCCF84E18093C6008091C00058
:107A100085FFFCCF80E18093C6000895E0910401CA
:107A2000F09105010995089540E951E08823A1F0FE
:107A30002D9A28EE33E0FA013197F1F721503040CA
:107A4000D1F72D9828EE33E0FA013197F1F7215064
:107A50003040D1F7815061F708953F924F925F9285
:107A60006F927F928F929F92AF92BF92CF92DF924E
:107A7000EF92FF920F931F93CF93DF93000080E16B
:107A80008093C4001092C50088E18093C10086E015
:107A90008093C2005098589A259A81E00E94143D24
:107AA00024E1F22E9EE1E92E85E9D82E0FE0C02ECA
:107AB00010E1B12EAA24A394B1E49B2EA6E58A2E50
:107AC000F2E57F2EE0E26E2E79E4572E63E5462E36
:107AD00050E5352E0E94763C8033B1F18133B9F107
:107AE000803409F46FC0813409F476C0823409F41B
:107AF00085C0853409F488C0803531F1823521F1A3
:107B0000813511F1853509F485C0863509F48DC0BC
:107B1000843609F496C0843709F403C1853709F423
:107B200072C1863709F466C0809103018F5F80932C
:107B30000301853079F6E0910401F0910501099582
:107B40000E94763C803351F60E94F33CC3CF0E94E2
:107B5000763C803249F78091C00085FFFCCFF092DF
:107B6000C6008091C00085FFFCCF9092C600809136
:107B7000C00085FFFCCF8092C6008091C00085FFC9
:107B8000FCCF7092C6008091C00085FFFCCF609250
:107B9000C6008091C00085FFFCCF5092C600809146
:107BA000C00085FFFCCF4092C6008091C00085FFD9
:107BB000FCCF3092C6008091C00085FFFCCFB09210
:107BC000C60088CF0E94763C863808F4BDCF0E945C
:107BD000763C0E94F33C7ECF0E94763C803809F4CC
:107BE0009CC0813809F40BC1823809F43CC1883942
:107BF00009F48FC080E00E94C73C6CCF84E10E94F2
:107C0000BD3C0E94F33C66CF85E00E94BD3C0E94D3
:107C1000F33C60CF0E94763C809306010E94763C44
:107C2000809307010E94F33C55CF0E94763C80333D
:107C300009F41DC183E00E94BD3C80E00E94C73C66
:107C400049CF0E94763C809309020E94763C809343
:107C5000080280910C028E7F80930C020E94763C79
:107C6000853409F415C18091080290910902892B8D
:107C700089F000E010E00E94763CF801E85FFE4FDA
:107C800080830F5F1F4F80910802909109020817AF
:107C9000190788F30E94763C803209F045CF809125
:107CA0000C0280FF01C16091060170910701660F0F
:107CB000771F7093070160930601A0910802B091AD
:107CC00009021097C9F0E8E0F1E09B01AD014E0F09
:107CD0005F1FF999FECF32BD21BD819180BDFA9A17
:107CE000F99A2F5F3F4FE417F50799F76A0F7B1F4B
:107CF00070930701609306018091C00085FFFCCF5F
:107D0000F092C6008091C00085FFFCCFB092C60003
:107D1000E1CE83E00E94C73CDDCE82E00E94C73CFA
:107D2000D9CE0E94763C809309020E94763C8093D3
:107D300008028091060190910701880F991F909386
:107D40000701809306010E94763C853409F4A6C0A1
:107D500080910C028E7F80930C020E94763C8032D0
:107D600009F0B8CE8091C00085FFFCCFF092C6002C
:107D7000609108027091090261157105B9F140E046
:107D800050E080910C02A82FA170B82FB27011C0E2
:107D9000BB2309F45CC0E0910601F0910701319624
:107DA000F0930701E09306014F5F5F4F46175707B7
:107DB000E8F4AA2369F3F999FECF209106013091E6
:107DC000070132BD21BDF89A90B58091C00085FFB2
:107DD000FCCF9093C6002F5F3F4F30930701209355
:107DE00006014F5F5F4F4617570718F38091C00099
:107DF00085FDE5CE8091C00085FFF8CFE0CE81E023
:107E00000E94C73C67CE0E94763C803209F08CCE3F
:107E10008091C00085FFFCCFF092C6008091C00029
:107E200085FFFCCFE092C6008091C00085FFFCCFAB
:107E3000D092C6008091C00085FFFCCFC092C600E2
:107E40008091C00085FFFCCFB092C60043CEE09188
:107E50000601F091070194918091C00085FFFCCF4D
:107E60009093C6009CCF80E10E94C73C33CE0E9415
:107E7000763C0E94763C182F0E94763C112309F430
:107E800083C0113009F484C08FE00E94C73C22CE29
:107E900080910C02816080930C02E5CE80910C02EF
:107EA000816080930C0259CF809107018823880F4D
:107EB000880B8A2180930B02809106019091070123
:107EC000880F991F90930701809306018091080203
:107ED00080FF09C080910802909109020196909359
:107EE000090280930802F894F999FECF1127E091D6
:107EF0000601F0910701C8E0D1E08091080290915D
:107F00000902103091F40091570001700130D9F34B
:107F100003E000935700E89500915700017001308D
:107F2000D9F301E100935700E89509901990009169
:107F3000570001700130D9F301E000935700E89534
:107F40001395103498F011270091570001700130FB
:107F5000D9F305E000935700E895009157000170B0
:107F60000130D9F301E100935700E895329602976A
:107F700009F0C7CF103011F00296E5CF112480919F
:107F8000C00085FFB9CEBCCE8EE10E94C73CA2CD19
:0E7F900085E90E94C73C9ECDF894FFCF80008B
:00000001FF
